:10000000F8FF022099010000250600008505000088
:10001000D5050000AD050000FD0500005D050000F0
:100020005D0500005D0500005D050000250600007F
:10003000250600005D050000695D00002D5E0000E2
:100040002506000025060000250600002506000004
:1000500025060000250600002506000025060000F4
:1000600025060000250600002506000025060000E4
:1000700025060000250600002506000025060000D4
:1000800025060000250600002506000025060000C4
:1000900025060000250600002506000025060000B4
:1000A00025060000250600002506000025060000A4
:1000B000250600002506000025060000ED4800008A
:1000C00025060000CD580000250600008D440000E4
:1000D00025060000E1570000250600002506000067
:1000E0002506000025060000250600002506000064
:1000F0002506000025060000250600002506000054
:10010000496600005D6600007166000085660000BB
:10011000250600009D4B0000250600002506000076
:100120002506000025060000250600002506000023
:100130002506000025060000250600002506000013
:10014000415E000025060000A15A000025060000BF
:100150009147000025060000250600002506000046
:1001600025060000250600002506000025060000E3
:1001700025060000250600002506000025060000D3
:1001800025060000250600002506000025060000C3
:100190002506000025060000584B4CF2205210B5F1
:1001A0001A804DF628121A8000BF00BF00F094FBA1
:1001B000534B4FF030621A60524A9A60524ADA60EA
:1001C000524B4FF470021A60514A136813F4807353
:1001D00001BF50490B604FF4A85313604E4B4F4979
:1001E0001A78100742BF1A7842F008021A704C4B76
:1001F0002A221A704B4A4C4B8B4204D252F8040FFD
:1002000043F8040BF8E7494B494A0021934202D2D4
:1002100043F8041BFAE7474A4748002350F82310E5
:1002200042F823100133662BF8D1444B444A802115
:1002300003F8011B9342FBD1424B3E4A1A60424BEA
:100240008A221A70A3F5805324225A70A0221A70B1
:100250009A799107FCD59A79D206FCD43B4A9379D6
:1002600003F00C03082B394BF9D103221A714022F9
:100270005A719A799406FCD534498A79334B5006E1
:10028000FBD5334A334911600221516020221A7094
:100290009A7902F00C020C2AFAD12F4B2F4A1A60DD
:1002A0002F4B4BF67F321A6000225A60072243F828
:1002B000042C2C4AC3F80C2D62B604F0D1F9154B6E
:1002C0001B68DA0705D5284804F086F9274B284A29
:1002D0001A60284B1B785B0609D5244C244B2268F6
:1002E0009A4204D1204804F077F90023236007F0F4
:1002F0003DFB00F0F7FA04F089F8FEE70E20054018
:1003000030800440823F04000100002B88ED00E0B3
:1003100010D0034014D0034002D00740A0B1012008
:1003200000E00740BCF00000F8A60120A0B10120C9
:1003300000E0012000A201200000000000E400E035
:1003400056E400E008ED00E00050064000400640A2
:10035000448004400000131104800440C0100500D4
:1003600014E000E00000202000DD68501CE00340A5
:10037000A5C3945A00F00740FFFFFFFFFFFFFFFFF8
:10038000FFFFFFFFFFFFFFFFFFFFFFFFFFFFFFFF7D
:10039000FFFFFFFFFFFFFFFFFFFFFFFFFFFFFFFF6D
:1003A000FFFFFFFFFFFFFFFFFFFFFFFFFFFFFFFF5D
:1003B000FFFFFFFFFFFFFFFFFFFFFFFFFFFFFFFF4D
:1003C000FFFFFFFFFFFFFFFFFFFFFFFFFFFFFFFF3D
:1003D000FFFFFFFFFFFFFFFFFFFFFFFFFFFFFFFF2D
:1003E000FFFFFFFFFFFFFFFFFFFFFFFFFFFFFFFF1D
:1003F000FFFFFFFFFFFFFFFFFFFFFFFFFFFFFFFF0D
:10040000FFFFFFFFFFFFFFFFFFFFFFFFDEF9FFFF23
:10041000FFFFFFFFFFFFFFFFFFFFFFFFFFFFFFFFEC
:10042000704700BF07F0B8BF07F090BF07F058B89B
:1004300007F0F0BF07F092BA06F0AABF07F08CB839
:1004400006F0D2B906F028B907F04ABF08F052BB4F
:1004500007F032B805F08ABB00F0A1BA00F0E2BAAA
:1004600000F010BB01F0A0BE02F035B901F075BF7D
:1004700002F007B802F028BA02F08FBB02F0F7B81A
:1004800002F0A3BA02F0D8BA02F0DFBA02F024BC3C
:1004900002F0C0BB02F0B7BC02F0F9BA02F03ABDFC
:1004A00002F063BD02F036B902F022B902F060B981
:1004B00002F00FBB02F081BD02F0D0BD02F044BEDD
:1004C00001F04CBE02F0C8BE03F0B0B903F088B929
:1004D00003F0E0B903F0FBB903F016BA00F06ABA12
:1004E00000F091BA704700BF03F05ABA07F074BA2F
:1004F00007F098BF06F0B6BE07F076BA7047FFFF68
:1005000010B5054C237833B9044B13B10448AFF34D
:1005100000800123237010BDA0B101200000000065
:10052000B8F00000084B10B51BB108490848AFF3FC
:1005300000800848036803B910BD074B002BFBD0AF
:10054000BDE81040184700BF00000000A4B1012022
:10055000B8F00000A0B1012000000000084B00220C
:100560001A601EF0040F0CBFEFF30880EFF3098050
:100570008169DFF80420104759060000704700BF6A
:10058000BCB10120084B01221A601EF0040F0CBF01
:10059000EFF30880EFF309808169DFF8042010474A
:1005A00059060000704700BFBCB10120084B022271
:1005B0001A601EF0040F0CBFEFF30880EFF3098000
:1005C0008169DFF80420104759060000704700BF1A
:1005D000BCB10120084B03221A601EF0040F0CBFAF
:1005E000EFF30880EFF309808169DFF804201047FA
:1005F00059060000704700BFBCB10120084B04221F
:100600001A601EF0040F0CBFEFF30880EFF30980AF
:100610008169DFF80420104759060000704700BFC9
:10062000BCB10120FFF79ABF9368013B002B10B4C7
:10063000936009DA9469A34202DBCBB20A2B03D19F
:100640005DF8044B0BF03ABB1368581C106019702E
:10065000C8B25DF8044B70472DE9F04F89B00368CC
:1006600000934368019383680293C368039303690B
:10067000049343690593836906930546C3696C48EF
:10068000079307F0C7FE6B4B1B68013B032B0BD88E
:10069000DFE803F002040608674806E0674804E064
:1006A000674802E0674800E06748684F07F0B2FE1D
:1006B000674807F0AFFE0099664807F011FE019900
:1006C000654807F00DFE0299644807F009FE03999A
:1006D000634807F005FE0499624807F001FE05999A
:1006E000614807F0FDFD0699604807F0F9FD07999C
:1006F0005F4807F0F5FD29685E4807F0F1FD5E4BA5
:100700005E48196807F0ECFD5D4B5E48196807F01C
:10071000E7FD5D4B5D48196807F0E2FD5C4B5D4805
:10072000196807F0DDFD5C4B5C48196807F0D8FDDF
:100730005B4B5C48196807F0D3FD5B4B5B4819685D
:1007400007F0CEFD3A4807F065FE594807F062FE13
:10075000A5F5007405F5007A21465648564D07F078
:10076000BFFD564807F0BCFD534B1B6813F4802FA8
:1007700001D004F013FADFF85CB104F1200826463A
:10078000BE4204D831784E4807F0AAFD02E04D4839
:1007900007F0A6FDDBF80000DFF838918268202121
:1007A000FFF742FF2B6813F4802F01D004F0F6F915
:1007B00001364645E4D1444807F092FDBC4208D8D2
:1007C0002178A1F120035E2B03D8D9F800008268BC
:1007D00003E0D9F8000082682021FFF725FF2B688D
:1007E0005E0301D504F0DAF901344445E6D1374817
:1007F00007F010FEA24502D9354B9C42ACD900232C
:1008000000932B68580301D504F0C8F92B685905EB
:1008100001D504F06BF82B681A0501D505F056F8E0
:100820002B68DB0401D503F031FE009B0133E7E7C1
:100830000FE90000BCB10120F0E00000FBE0000087
:1008400005E100001DE1000029E10000FFFF02209A
:1008500037E100005AE100006CE100007EE1000099
:1008600090E10000A3E10000B5E10000C7E1000055
:10087000D9E10000EBE1000028ED00E0FEE100001E
:100880002AED00E010E200002CED00E022E2000082
:1008900030ED00E034E2000038ED00E046E2000018
:1008A00014ED00E059E200003CED00E06BE20000D6
:1008B0007EE200008EE200003480044094E20000FA
:1008C00098E20000DDE800009DE200009EE20000EA
:1008D000DFFF022020AC0120014B10221A8070475C
:1008E000002005407047FFFF094908B50B6868B153
:1008F0006A461844A2F50052904206D306F0F0FC76
:100900000C2303604FF0FF3008BD0860184608BD97
:10091000FCA60120012870B50E4615460FD10C46E5
:100920002B1B3344002B0ADD23780A2B02D10D2028
:1009300005F0C0F914F8010B05F0BCF9F0E7284602
:1009400070BDF8B50D4616460024B44218DA05F01D
:100950000DF9431CFBD0C0B20D2804F1010706D0ED
:100960000A2804D0285505F0A5F93C46EDE70A26EB
:100970002E550D2005F09EF930463C4605F09AF9BB
:100980002046F8BD4FF0FF3070474FF400534B60E6
:1009900000207047012070474FF0FF30704738B596
:1009A00000200425040205F0E1F8013D40EA0400BE
:1009B000F8D138BD036810B51BB319460C78202C4C
:1009C0000B4601F1010201D11146F7E7222C09D1B2
:1009D000134611460A4611F8014B222C08D0002C70
:1009E000F8D105E00A460131147814F0DF0FF9D18F
:1009F000117801F0FD01202904BF002102F8011B3C
:100A00000260184610BD036807B50BB9002005E069
:100A100001A905F041FE0028F8D0019803B05DF867
:100A200004FBFFFF08B58378013B0B2B19D8C37873
:100A3000013B1E2B17D80379172B16D843793B2B74
:100A400015D883793B2B14D80389B3F57A7F12D25A
:100A50004389B3F57A7F10D2094807F0DBFC002008
:100A600008BD012008BD022008BD032008BD0420E8
:100A700008BD052008BD062008BD072008BD00BF31
:100A8000A0E2000010B5044686B00A4807F0C2FC98
:100A90006089049020890390A07902906079019088
:100AA00020790090E378A2782188034807F018FCA9
:100AB00006B010BDA0E20000BAE20000214B224ABD
:100AC00010B59A61214ADA6102F580225A604FF02E
:100AD00080529A601E4ADA604FF0A0521A6140F6C6
:100AE000FF7200205A610422186012681A62022103
:100AF0005862032209781278090441EA026101224E
:100B000041F0F801147883F8352041EA0421996214
:100B100083F836200F4983F8372083F8342083F890
:100B2000382083F8392083F83A2083F83B2083F873
:100B30003C0083F83D0083F83E0083F83F00D96213
:100B4000196310BD00A701200000FF1FFFFF030075
:100B5000FFFF0100000E270710B53A483A4C07F096
:100B600059FC3A4807F056FC94F835302BB194E81C
:100B7000060037480A4407F0B3FB94F83520324B9F
:100B80002AB19968DA6833480A4407F0A9FB94F857
:100B900035202D4B2AB119695A692F480A4407F0AC
:100BA0009FFB94F83420284B2AB19969DA692B48C5
:100BB0000A4407F095FB94F83A302BB1224B2848B1
:100BC00093F83B1007F08CFB94F83E302BB11E4B92
:100BD000244893F83F1007F083FB94F83C302BB186
:100BE000194B214893F83D1007F07AFB94F8383000
:100BF00013B11E4807F00EFC94F8393013B11C48AD
:100C000007F008FC1B4807F005FC216A1A4807F0AA
:100C100067FB616A194807F063FBA16A184807F08F
:100C20005FFB184807F0F6FBE26A174B1748B2FB68
:100C3000F3F103FB112207F053FB1548BDE8104008
:100C400007F0E8BBD2E2000000A70120EAE20000C2
:100C5000FCE200001AE3000038E3000056E3000065
:100C600074E3000094E30000B4E30000D4E3000068
:100C7000DCE30000E4E30000EFE3000015E4000023
:100C80003BE4000061E4000040420F0067E4000024
:100C90000FE90000014807F023BB00BF94E4000007
:100CA000704770477047FFFFF8B50F4D07460E4677
:100CB0001446237893B12B680820996806F010FC3D
:100CC0002B682020996806F00BFC2B680820996897
:100CD00006F006FC2378013B2370EAE7384607F06C
:100CE000FFFA2670F8BD00BF20AC01202DE9F74FB8
:100CF0001F4D204C2B78064654F823000F46904693
:100D000008B106F071FE07F1010A504695F800B0EF
:100D1000DFF85C9006F060FE2B7844F82B0054F866
:100D2000230060B15246314607F08AF999F8003045
:100D30000133DBB2132B88BF002389F80030B8F1F0
:100D4000000F11D00C4C206870B10C4B1B785BB9B4
:100D500001AB3A46314601F094FB21680A2002F0CB
:100D600065FD206801F083FC03B0BDE8F08F00BF93
:100D7000C1B10120CCB10120C4B10120CAB1012010
:100D800070B500240C4D264655F8240018B106F025
:100D90002BFE45F824600134142CF5D1074C084B88
:100DA000206800251D7028B101F095FC206806F030
:100DB0001BFE256070BD00BFCCB10120C4B1012075
:100DC000C1B1012070B5124C9EB00021206801F025
:100DD0007BFDD0B9012522687821684602F000FD2C
:100DE00098B1684607F06CFF00280CDD1EAB184474
:100DF000002300F8793C29466E1C6A46054807F036
:100E00006FFA3546E7E70130E5D11EB070BD00BF8F
:100E1000C4B1012084E500002DE9F0431D4C9FB0D2
:100E20000746894620680021904601F04DFD60BBD1
:100E30000125064622687821684602F0D1FC78B187
:100E4000684607F03DFF002805F1010504DD1EABF3
:100E5000184400F8796C01E0013001D0A845E9D1CF
:100E60002068C16801F030FD10B10B4807F038FA76
:100E7000A8450AD16946384607F0A6FE384607F06D
:100E80001FFF89F80000002000E001201FB0BDE82E
:100E9000F08300BFC4B101208FE500002DE9F743C6
:100EA00006460F460090009B1A78202A06D13A7811
:100EB0003244934202D201330093F4E7DFF86480B6
:100EC000002454F80850DDF80090284607F0F8FE9A
:100ED00049460246284607F061FFD8B908EB0403EB
:100EE0001D79012D02D0022D03D013E0FFF76AFF18
:100EF00014E0009B01A901336846009305F074FCDF
:100F000040B1019A3946013A3046FFF785FF08B9EA
:100F1000002503E00834182CD3D1F9E7284603B0A4
:100F2000BDE8F083A8E400002DE9F04FB24BB34FC9
:100F30001D783B68A3B0044602911646002B3BD1B6
:100F4000DFF8DC8298F80030002B38D1002A36D048
:100F5000282006F041FD386050B31322314601F0DD
:100F600023F918B9054604AE804616E0A44807F0F8
:100F7000B7F924E007F0A4FE002816DD411E22ABDD
:100F80000B440135EDB20022C9B2304603F8788C2B
:100F9000FFF7ACFE142D28BF00253A6878213046B3
:100FA00002F01EFC86420AD1E4E70130F5D106E0EA
:100FB000012388F8003002E00AB9FFF7E1FEDFF80C
:100FC0004C8200230193C246DFF83CB204F0CEFD10
:100FD00043B20133FAD09BF900308A4A98F90010E5
:100FE00052F83360884F765CC0B2B04278D011D2EC
:100FF000013B5BB29646002B24DB02EBC30636793D
:10100000B14204DA5EF83360765C864218D0013B68
:101010005BB2F0E701335BB2944602E00EF10103EC
:101020005BB25FFA83FEBEF1150F0BD802EBC3066D
:101030003679B142F2DA5CF83360765C8642EDD103
:101040003B704DE0714A0190002313703B70DFF854
:10105000C4B1029B9BF8001099425846B4D06C4A28
:101060001378994217460FD39BF80030591C8BF820
:1010700000109DF80410E1541378029A9A420CDD96
:10108000634A0133137008E001785BB28B42EBDBFB
:10109000E118E65C4E70013BF6E79BF80060DFF874
:1010A0007C91013E76B23A78964208DAD9F800206F
:1010B000A05D9168013606F013FA76B2F3E79BF96A
:1010C0000060DFF858B13B789E42BFF67DAFDBF899
:1010D000003008209968013606F002FA76B2F2E78D
:1010E00097F9003002EBC3020131137949B29942FA
:1010F0008AF800107FF46AAF5379434A00268AF8D1
:1011000000601670152B3FF65FAF01A252F823F076
:101110004F100000831100005D1200000314000056
:1011200069110000C90F0000E1120000E313000084
:10113000051300009B1300001B1300002512000084
:10114000C90F00005D1200007B120000E1120000D8
:10115000C90F0000C90F00001B1300009B13000003
:10116000E3130000031400002A4D6670032323706C
:101170002A4600212848FFF797FD254B2E701E7048
:101180004EE1244F3B78002B3FF41EAF204EDFF89A
:101190008C903278013B3B70D9F80030013A996865
:1011A0003270082006F09CF997F90030CB46317870
:1011B0008B420CDAE11803934878E054DBF8001016
:1011C000896806F08DF9039B01335BB2EFE7D9F82C
:1011D00000302020996806F083F997F90070337881
:1011E0009F423FF7F1AEDBF80030082099680137E5
:1011F00006F076F97FB2F2E7C1B10120C4B1012057
:10120000B8E50000D4E40000CBB10120C8B1012052
:10121000C0B10120C9B1012010E9000020AC0120BB
:10122000CAB10120804D2B78E654804B1B680A2000
:10123000996806F055F929462046FFF72FFE30B988
:10124000297831B101222046FFF750FD01E000234B
:101250002370774A002313702B70E1E0744E734FB4
:101260003378002B3FF4B0AE3B680820996806F055
:1012700037F93378013B3370F2E76B4ADFF8B0B1EE
:1012800013789BF800609E4291463FF49DAE013B6F
:101290001370664A76B299F80030644F9E420BDABA
:1012A000A31903925878A05513680136996806F07F
:1012B00017F976B2039AEEE73A682020916806F0B3
:1012C0000FF99BF9006099F8002096423FF77CAE39
:1012D0003A6808209168013606F002F976B2F2E722
:1012E000534E514FDFF844B133783A789A427FF643
:1012F0006BAE5A1C3270DBF80020E05C916806F09F
:10130000EFF8F1E74A4E4B4832460021FFF7CCFC9C
:10131000454A00233370137056E6474F95B9F86C71
:1013200080B107F0CDFC404DF96C2870C2B201329B
:10133000204606F085FE29783D4A2046FFF7B4FC9A
:10134000132541E66E1EDFF8F0B057F8260070B1A5
:1013500007F0B6FC344F5BF826103870C2B2013289
:10136000204606F06DFEF5B2314A397811E05BF89F
:10137000250000283FF428AE07F0A2FC2A4E5BF8B7
:1013800025103070C2B20132204606F059FE284ABC
:1013900031782046FFF788FC16E6132D224EDFF841
:1013A00098B00AD1DBF8000038B107F089FCC2B26E
:1013B00030700132DBF80010E6E76F1C5BF82700A5
:1013C00060B107F07DFC1C4B3070C2B2013253F8A3
:1013D0002710204606F034FEFDB2D8E730702070AA
:1013E000D5E7134B10491A78097891427FF6ECAD96
:1013F000511C19700D4BA05C1B68996806F070F8C1
:10140000E2E50B4E3378002B3FF4DEAD074B1B6853
:101410000820996806F064F83378013B3370D3E50F
:10142000204623B0BDE8F08FC0B1012020AC0120E0
:10143000C9B1012010E90000CCB1012042884378F5
:10144000007843EA022340EA032070470B0A017048
:1014500043700B0C090E8370C1707047024400F892
:10146000011B9042FBD1704730B5044614F8013B94
:1014700011F8015B5B1B151BE84201D0002BF5D076
:10148000184630BD83690239023B99423DBF43890A
:10149000C06A01FB030000207047FFFFF0B505683C
:1014A00085B12C4614F8013B202B0ED93A2BF9D1EB
:1014B0002B78303BDAB2092A0AD8AA1C944207D109
:1014C000032B27DD4FF0FF30F0BD144B1878F0BD33
:1014D000DFF84CE000235EF823702E4617F8012B4E
:1014E00016F8011BA2F1610CBCF1190F98BF203A4C
:1014F000A1F1610C98BFD2B2BCF1190F9CBF203989
:10150000C9B22AB19142E9D00133042BE3D1D9E722
:10151000B442F9D104601846F0BD00BF1CB20120EE
:10152000ECE6000038B50D46044678B103686BB1AF
:101530001A785AB18188DA88914207D1587802F036
:1015400089F910F0010001D1236801E0092000238E
:101550002B6038BD01380A4411F8013B00F8013F07
:101560009142F9D17047CA7E8B7E032843EA022359
:1015700001BF487D0A7D42EA002243EA0243184641
:101580007047C2F307238A76CB760378032B01BF1B
:10159000120C0A75120A4A757047002370B51A4674
:1015A0002E25C669541CB25C202A0AD0052A08BF21
:1015B000E522092C02BFCE1801337572CE18013313
:1015C00072720B2C2246ECD10B4400225A72C36972
:1015D000DB7A0B72C46904F11C00FFF72FFF08606F
:1015E000E27DA37D43EA0223CB80627E237E43EA31
:1015F00002238B8070BD70B5C37804460BB9002000
:1016000070BD00F13406026B40780123314602F0D0
:101610005EF980B9216B636AE269E070CB1A93428C
:10162000EDD2A378022BEAD10A4401233146607837
:1016300002F04DF9E3E7012070BDF8B50446FFF76D
:10164000DAFF0546002842D12378032B37D12779CA
:10165000012F34D104F1340601464FF400723046B4
:10166000FFF7FCFE552384F83232AA2384F8333284
:1016700052234122722184F8343084F835306123BA
:1016800084F8363084F8372084F81A2284F81B3224
:1016900084F8181284F8191204F507702169FFF70D
:1016A000D5FEE16804F50870FFF7D0FE226A607885
:1016B000013222633B46314602F009F925710022CE
:1016C0001146607802F020F9003018BF0120F8BD03
:1016D000036B8B4270B506460D4611D0FFF78BFFAA
:1016E000044670B92A46012306F13401707802F0ED
:1016F000D1F800281CBF4FF0FF350124356300E00E
:101700000024204670BDFFFF002310B5C3704FF0CA
:10171000FF3303630446FFF7DBFF18BB94F8332263
:1017200094F8323243EA02234AF6552293421BD1FF
:1017300094F83430EB2B03D01833DBB2012B15D8DF
:1017400003220B4904F16A00FFF78EFE78B10522EF
:10175000084904F18600FFF787FE002814BF022025
:10176000002010BD042010BD032010BD022010BDBC
:101770001CE6000020E600002DE9FF4100230B607D
:101780000F461546FFF78AFE061EC0F227819B4BC7
:1017900053F82640002C00F023813C60237805F0AC
:1017A000FE0583B1607802F055F8C1070BD4002D17
:1017B00000F0188100F0040303F0FF00002B00F09C
:1017C00019810A2016E10023F0B223706070012114
:1017D00002F04CF8C20700F107810DB14307F0D4C5
:1017E00000212046FFF790FF02281FD104F5FD7568
:1017F000002115F8040C10B12846FFF71FFE4DF824
:1018000021000131042905F11005F2D100255DF810
:10181000256036B131462046FFF776FF012801D812
:101820000CE003200135042DF1D1DFE0042800F0A5
:10183000E080012801D90D20DCE0002694F840204A
:1018400094F83F3043EA0223B3F5007FF3D194F8D4
:101850004B5094F84A3053EA052504D104F158005E
:10186000FFF7ECFD054694F84470E5617B1E012B03
:10187000A770E0D894F841108BB26381002BDAD0C6
:101880004B1E0B42D7D194F8468094F8453043EA7A
:10189000082818F00F0FA4F80880CCD194F848005D
:1018A00094F8473053EA002003D104F15400FFF7C5
:1018B000C5FD94F8433094F8422052EA0323BAD08D
:1018C00005FB07FE03EB181272449042B3D3801A53
:1018D000B0FBF1F14A484F1E8742ACD84FF6F57085
:1018E000814206D840F6F577B9428CBF022701271E
:1018F00000E00327023133443244032FA161266202
:101900006362E26210D194F85F2094F85E3053EA8B
:10191000022390D1B8F1000F8DD104F16000FFF7E0
:101920008DFDA062890010E0B8F1000F83D0022F76
:101930004FEA410018BF4018734418BF01F001017D
:10194000A3620CBF014601EB500101F2FF11B5EBA0
:10195000512FFFF470AF4FF0FF332361E360032F8B
:101960004FF0800323712FD194F8652094F86430F0
:1019700043EA0223012B27D1711C2046FFF7A8FE62
:1019800010BB94F8332294F83232207143EA0223D8
:101990004AF65522934217D104F13400FFF74EFD69
:1019A000184B984210D104F50670FFF747FD164B0F
:1019B000984209D104F50770FFF740FD206104F556
:1019C0000870FFF73BFDE060104A27701388013371
:1019D0009BB200201380E38060610BE00B2009E0E4
:1019E0000C2007E0284605E0032003E004287FF4EC
:1019F00022AF012004B0BDE8F08100BF20B2012079
:101A0000F4FFFF0F52526141727241611EB2012018
:101A100001292DE9F04706460C4615466FD9836922
:101A200099426CD20378022B3CD0032B4CD0012B73
:101A300065D101EB5108416A01EB5821FFF748FEDF
:101A4000074600285CD106F1340A08F10109C8F301
:101A5000080814F001041FBF1AF8083003F00F0241
:101A60002B0103F0F00314BF1343EBB20AF8083064
:101A7000716A0123F37001EB59213046FFF728FE0C
:101A80000746E8BBC9F3080914B1C5F3071506E01A
:101A90001AF80910C5F3032521F00F010D430AF8C8
:101AA000095029E0416A01EB1421FFF711FE0746B6
:101AB00030BB640006F1340304F4FF741A191D5599
:101AC000C5F30725557017E0416A01EBD411FFF704
:101AD000FFFD0746A0B9A40006F1340304F4FE7428
:101AE0001C442046FFF7AAFC25F0704500F0704129
:101AF00029432046FFF7AAFC0123F37000E00227E8
:101B00003846BDE8F0870129F8B505460C4652D99C
:101B1000836999424FD20378022B29D0032B38D006
:101B2000012B48D101EB5106416A01EB5621FFF729
:101B3000CFFD10B14FF0FF30F8BD771C696AC6F3D6
:101B400008062E4401EB5721284696F83460FFF72B
:101B5000BFFD0028EED1C7F308073D44E30795F821
:101B6000340046EA00204CBF0009C0F30B00F8BD6A
:101B7000416A01EB1421FFF7ABFD0028DAD16400C4
:101B8000343504F4FF742B1958782B5D43EA002098
:101B9000F8BD416A01EBD411FFF79AFD0028C9D1C5
:101BA000A40005F1340004F4FE742044FFF746FC61
:101BB00020F07040F8BD0120F8BDB1F5001FF8B568
:101BC00005460C4601D30220F8BDCA06FBD1826847
:101BD0000668296162B93378022B01D9B36A33B937
:101BE0003389B3EB541FEED9B36AAB6116E01A46E2
:101BF00077897F02BC4211460CD32868FFF783FF28
:101C0000431C024618D00128DDD9B3699842DAD2C4
:101C1000E41BEFE73046FFF735FCA861AB696A616A
:101C2000002BD0D003EB54233436C4F308043444DF
:101C3000AB61EC610020F8BD0120F8BD2DE9F04159
:101C4000804605680F4631B9EE68A6B1AB699E4281
:101C500028BF012610E02846FFF755FF012861D96B
:101C6000421C03D14FF0FF30BDE8F081AB699842D0
:101C700059D33E4600E001262B6913B90020BDE888
:101C8000F081BE4217D1AB69D8F80000741C9C42A9
:101C900028BF02242146FFF736FF012842D0431C0B
:101CA000E0D038B1EB68012B05D9AA69934238BF5F
:101CB0001E4600E0A4B93446AB6901349C4202D30D
:101CC000012EDBD902242146D8F80000FFF71BFFC4
:101CD00030B1012826D00130C4D0B442ECD1CDE7D8
:101CE0004FF0FF3221462846FFF792FEC0B947B9B0
:101CF000AA692B69EC60023A93420AD8013B2B6136
:101D000007E0224639462846FFF782FE0028EFD03A
:101D100006E02B7943F001032B712046BDE8F081EA
:101D200001289FD00120BDE8F081F8B50D46012DB6
:101D30000746114601D80220F8BD0468A3699D42F8
:101D4000F9D22AB14FF0FF322046FFF761FE08BBFF
:101D500029463868FFF7D7FE064608B90020F8BDC7
:101D60000128E8D0431C14D0002229462046FFF762
:101D70004FFE78B9A2692369911E8B4205D20133C7
:101D80002361237943F00103237196423546DFD363
:101D9000E4E70120F8BDF8B505460E46FFF72BFC39
:101DA0000446F8B931462846FFF76CFB05F13406C6
:101DB000074628634FF4007221463046FFF74EFB7A
:101DC0006B899C4204D36889001B18BF0120F8BDB1
:101DD00001233A193146687801F079FD0028F2D1E3
:101DE0000134EDE70120F8BD2DE9F84307690668E5
:101DF0002037B7F5001F24BF0023836183690446A1
:101E00008946002B45D0C7F30808B8F1000F39D137
:101E100041690133836131B93389B3EB571F31D83D
:101E20000023A36135E07389013B13EA572329D1CD
:101E30003046FFF768FE0128054602D80220BDE8BB
:101E4000F883421C02D10120BDE8F883B3699842AF
:101E500012D3B9F1000FE3D061692046FFF7EEFE1F
:101E60000546C8B10128E9D0431CECD001463046F4
:101E7000FFF791FF0028E6D1656129463046FFF75C
:101E800001FBA061343646442761E6610020BDE8CD
:101E9000F8830420BDE8F8830720BDE8F883FFFF3E
:101EA0002DE9F0470B7807682F2B04460E4601D02A
:101EB0005C2B01D1324601E07B6908E013782F2BBF
:101EC000164602F10102F9D05C2BF7D00023A36083
:101ED00033781F2B04D904F12008DFF8AC913FE0E0
:101EE000802384F82B3020460021BDE8F047FFF71F
:101EF00064BE04F11F00002113F8012F2E2A01F106
:101F000001013CD02F2A3FD1202A0E448CBF202330
:101F1000242384F82B3000212046D4F800A0FFF7BA
:101F20004CFE054630B9A1695046FFF7D1FB054686
:101F3000002873D094F82B30002D40F087805A078A
:101F400000F19E80A379DB0640F193802369387805
:101F5000C3F3080307F134011944FFF704FBA06041
:101F60000B2220214046FFF779FA334613F8012966
:101F70002E2ABED000211A46084608252AE0032949
:101F80004AD000F8012FB7E75C2ABDD0202ABBD980
:101F900042E02F2B25D05C2B23D02E2B6BD08D42F3
:101FA0003AD913F0800F18BF03F07F03DFF8DCC0CD
:101FB00018BF19F803301CF801EFBEF1000F1AD159
:101FC000A3F1610EBEF1190F01D8203BDBB208F876
:101FD0000130013112F8013F202B00F10100D8D867
:101FE0000CE0321801E05C2D08D1901B12F8015B67
:101FF0002F2DF8D1F9E77345DDD10DE061B194F8EB
:102000002020E52A04BF052284F82020202B8CBF45
:102010000023042306447CE7062531E0E0690378C9
:1020200093B1C37A03F03F03A371C37A190706D4AF
:102030000B224146FFF718FA00283FF47BAF00213E
:102040002046FFF7D1FE6CE7042573E7042D17D176
:1020500013F0200F03F0040306D0002B80D0802360
:1020600084F82B3000250BE0002B14BF0425052538
:1020700006E0052504E00B2DCED008210B25A9E7AD
:102080002846BDE8F08700BF6CE6000025E60000AA
:1020900070B5044605680E460420A16909B32846B8
:1020A000FFF716FBF8B9E3691A78FAB1DB7AE52A8B
:1020B00003F03F03A3710DD02E2A0BD00F2B09D0B4
:1020C00023F02003A3F1080253425341B34201D14C
:1020D000002070BD00212046FFF786FE0028DCD0DE
:1020E00001E00028F4D00023A36170BD0420FAE7CA
:1020F00038B5002104460568FFF75FFD70B9A16996
:102100002846FFF7E5FA48B9E3691B78E52B08D0C4
:102110003BB101212046FFF767FEEFE7042808BF27
:10212000072038BD70B505460668FFF7E1FF044695
:1021300090B9A9693046FFF7CBFA044660B9014669
:102140002022E869FFF78AF90B2205F12001E869EE
:10215000FFF700FA0123F370204670BD1FB5019010
:1021600004A8009140F8041D1446FFF797F90028D1
:1021700012DB0C4B53F820200AB100211170019A98
:102180000AB10021117043F820203CB1002201A9BE
:102190006846FFF7F1FA02E00B2000E0204604B0A9
:1021A00010BD00BF20B201202DE9F04F8FB01546C1
:1021B00001910446002800F0BE8002F03F073A4635
:1021C00002A901A8FFF7D8FA0646002840F0BD8012
:1021D0000DF13809029B49F82C3D01994846FFF75B
:1021E0005FFE20B99DF93730002BB8BF062015F0EF
:1021F0001C0F50D040B1042802D14846FFF792FF8F
:1022000047F0080748B19DE09DF8123013F0110F18
:1022100040F09780680700F19080390749D50A9D02
:10222000DDF808B029469BF80000FFF79CF9212350
:102230004FF0000A2B744C2385F80EA085F80FA0F0
:102240006B740A9B2022DA72804652460A995846DD
:10225000FFF797F90A9B83F81CA083F81DA083F869
:102260001EA083F81FA0029B0122DA70B8F1000FB4
:102270001DD05246414648461D6BFFF756FD0028CB
:1022800060D129460298FFF723FA029B08F1FF313B
:10229000D96050B156E0002854D19DF81230DA06CA
:1022A0004DD4AD0701D5D8074BD4390701D547F038
:1022B0004007DDF808800A9DD8F830302362656257
:1022C00098F800002946FFF74EF90146A06005F195
:1022D0001C00FFF7B3F8B8F80630A380BA064FF039
:1022E00000030546E060C4F8008027746374E3616E
:1022F00063612ED568B3B8F80A7060617F02AF429F
:102300000CD22068FFF7FFFB01280146A5EB07056B
:1023100003D9431CF3D1012600E00226A161A6B92E
:10232000C5F30803ABB10298FFF7ACF860B100EB5E
:102330005520E0610DE009200CE0082002E00420B7
:1023400000E00720064600E0022600232360304616
:1023500000E000200FB0BDE8F08F2DE9F74F984660
:1023600000230F46C8F8003001A906461446FFF7BF
:10237000D9F8002840F08280707C00287ED1337C20
:10238000DA077AD5F3687069181A844228BF0446C0
:10239000002C70D07369C3F30802002A48D1019A57
:1023A000B2F80A9009F1FF3919EA532910D10BB993
:1023B000B06803E0B1693068FFF7A5FB012801D8D8
:1023C000022002E0431C02D10120707456E0B0618B
:1023D000DDF804B0B1695846FFF754F80028EFD093
:1023E000650A09EB000A21D0BBF80A309BF801000E
:1023F00009EB05029A4288BFC9EB03052B465246FA
:10240000394601F047FA0028DED10199CB785BB15B
:10241000086BCAEB0000854206D94FF400723431D4
:1024200007EB4020FFF796F86D0219E0C6F81CA0F4
:102430007569F1690198C5F30805C5F50075A542F0
:1024400028BF2546FFF744F90028BDD101997369DB
:102450003431C3F308032A4619443846FFF77AF8A3
:10246000D8F800302B44C8F800307369641B2F443F
:102470001D4475618CE7204600E0072003B0BDE8ED
:10248000F08F2DE9F74F9B4600238946CBF80030AB
:1024900001A904461646FFF745F8002840F0AB8036
:1024A000607C002840F0A780237C9A0740F1A2803E
:1024B0006369F3424CD3DE434AE06369C3F3080225
:1024C000002A7AD1019A5789013F17EA532742D04F
:1024D0000198E369026B9A425CD0DDF804A0A1691F
:1024E0005046FEF7CFFF002847D0750A07EB0008DB
:1024F00055D0BAF80A309AF801007A199A4288BF82
:10250000DD1B2B464246494601F0E1F9074600280B
:1025100037D10198016BC8EB01018D4208D94FF406
:10252000007209EB41213430FFF714F8019BDF7092
:102530006D02DBF800302B44CBF800306369761B6A
:10254000A9441D44E3686561AB422CBFE360E560CC
:10255000002EB2D109E01BB9A06860B9014600E0C5
:10256000A1692046FFF76AFB28B9237C43F04003AA
:10257000237400203FE0012801D1022002E0431C27
:1025800002D10120607436E0A368A061002B9FD1C6
:10259000A0609DE7FFF72FF800289ED0F1E7626961
:1025A000E3689A4207D35046FFF725F80028E8D1A0
:1025B000019BC3F83080C4F81C806569E16901980B
:1025C000C5F30805C5F50075B54228BF3546FFF7C8
:1025D0007FF80028D5D1019863693430C3F308032C
:1025E0002A4618444946FEF7B5FF019B4FF0010209
:1025F000DA709EE7072003B0BDE8F08F0A29F7B52F
:1026000004460F4602D10D21FFF7F8FF6368002B47
:1026100014DB5D1C23443B2DA6681F730BDD01AB4F
:102620002A4604F10C012068FFF72BFF019B5D1B7C
:1026300018BF4FF0FF3501366560A66003B0F0BDEE
:102640004268002A13B5044602DA4FF0FF300CE06E
:1026500000F10C0101AB0068FFF713FF0028F4D173
:102660006268019B9A42F0D1A06802B010BD73B5B8
:1026700001A90646FEF756FF054648BB337C5B06BC
:1026800026D5316A0198FFF723F8054600BB746A26
:10269000E37A43F02003E372B26830682146FEF724
:1026A00070FFF16804F11C00FEF7D0FE21232376B1
:1026B0000198A5754C2363760123E575A574E5742F
:1026C000C370FEF7BAFF337C23F040030546337432
:1026D000284602B070BD13B50446FFF7C8FF28B9FD
:1026E00001A92046FEF71EFF00B9206002B010BD10
:1026F00007B502AB43F8040D1846FEF7CFFE0028DD
:10270000A9BF034B0B201870002003B05DF804FB39
:102710001CB2012030B58FB00022019002A901A89F
:10272000FFF72AF8044600BB0EA8029B40F82C3D98
:102730000199FFF7B5FB044690B99DF93730002B9E
:1027400003DA029B059A5A610FE09DF81230DB060E
:102750000AD5029D0A992878FEF705FF686104E012
:10276000042808BF052400E0052420460FB030BD32
:102770002DE9F04395B0002201908846027006468C
:1027800002A901A8FEF7F8FF0746002840F0928052
:10279000029B09935B690B934546DDF82C90B9F1D8
:1027A000000F5BD0202109A8FFF707FA0446002894
:1027B00052D10F990298FEF78BFF044600284BD1A7
:1027C000029B10991878FEF7CEFE21460B9009A8BF
:1027D000FFF7F3F9044600283ED1002109A8FFF7CE
:1027E00057FC0446002861D1029B10991878FEF727
:1027F000BAFE814508D10F9B8DF8154093B103A90E
:1028000009A8FEF7CAFE07E0214609A8FFF7ECFA7F
:1028100004460028E1D049E003AB23445B7A13B1BE
:102820000134F9E71C46631C9D4214D3281B2B4638
:10283000C5EB040E8342019908D0013B03EB0E0265
:102840000DF10C0C6244527ACA54F3E7E443254478
:102850002F234B55A1E7112427462BE0454503D1F3
:10286000013D019B2F225A55154B1A78154B53F8F1
:1028700022201146881A11F8013B002BFAD1811C45
:102880008D4211D3834203D0D15CF1540133F9E777
:1028900033443A225E1C1A70019B5B5D06F8013BD3
:1028A0000135A845F8D805E0112703E0042C08BF3E
:1028B0000224D1E700233846337015B0BDE8F08319
:1028C0001CB20120ECE6000073B50D4601A90446D8
:1028D000FEF728FE002876D1607C002873D1E368DB
:1028E000AB4204D2227C12F0020F08BF1D46002228
:1028F00063696261002D64D0019A568976026BB1DA
:10290000013B6A1EB3FBF6F1B2FBF6F28A4205D335
:10291000724213406361ED1AA16910E0A16869B9C0
:102920002046FFF78BF90128014601D1022002E081
:10293000013002D10120607445E0A160A161B9B904
:1029400000232CE0636933446361237C9A07A5EB81
:10295000060510D52046FFF771F9014680B14B1CE2
:10296000E8D00129E2D9019B9B699942DED2A1619D
:10297000B542E7D805E02068FFF7C5F80146EEE765
:10298000054663692B446361C5F30803002BD7D068
:102990000198FEF777FD0028C8D000EB5523E268C8
:1029A0006569954281BF227CE56042F04002227455
:1029B000C5F3080038B1E2699A4218BFE36100200C
:1029C00001E02B46F4E702B070BD1FB5044601914B
:1029D00038B3002203A901A8FEF7CEFEF0B9039B8D
:1029E000236001992046FFF75BFA00BB94F92B3076
:1029F000002B08DBA379DB060FD5039BE169187870
:102A0000FEF7B1FDA060039BDB88A3800021204678
:102A1000FFF7D3F80428034605D1052000232360DF
:102A200008E0092006E0002BF8D1184602E004284F
:102A3000F3D0F3E704B010BD13B501A90446FEF7C7
:102A400071FD00B9206002B010BD37B50D4601A977
:102A50000446FEF767FDC0B90146204615B9FFF7E9
:102A6000ACF812E0FFF714FB10F0FB030DD16B7212
:102A7000A3691BB129462046FEF78FFD00212046A1
:102A8000FFF7B2F9042808BF002003B030BD30B50D
:102A90008FB00D460190002203A901A8FEF76CFE3D
:102AA000044698B9019903A8FFF7FAF9044668B9F2
:102AB0009DF93730002B08DB45B1099B68722BB1BB
:102AC000294603A8FEF769FD00E0062420460FB062
:102AD00030BD2DE9F04385B088460190154603A925
:102AE000002201A8FEF748FE0646002851D1039CAB
:102AF0002C60A7692369BA1E934202D8C8F8003037
:102B000047E02378012B11D102270546394620469C
:102B1000FEF7F9FF431C2FD001282FD000B9013553
:102B2000039B9B6901379F42F0D32AE0616A054607
:102B3000044634B9039801F10109FEF7C9FDF8B95B
:102B40004946039810F8343B022B08D103195A78F0
:102B5000035D53EA022308BF0135023407E0204435
:102B6000FEF76CFC20F0704000B901350434013FE1
:102B7000C4F30804DDD104E0012602E0022600E0EF
:102B80000646039BC8F800501A791D6142F0010205
:102B90001A71304605B0BDE8F08373B501A905464A
:102BA000FEF7C0FC002833D16C7C84BB2B7C9A07D9
:102BB0002BD56E69EB689E4229D23EB92246A968A0
:102BC0002846FFF7B2F8AE60044615E0A969286808
:102BD000FEF799FF431C014603D0012803D10224CC
:102BE0000AE0012408E0019B9B69984204D2AA698B
:102BF0002846FFF79AF804466B69EB602B7C43F09C
:102C000040032B741CB16C7401E0072000E02046E7
:102C100002B070BD2DE9F0419AB00222019003A9E3
:102C200001A8FEF7A9FD0446002851D11AAE039B66
:102C300046F8583D01993046FFF732F9044600281E
:102C400046D19DF83B309A0607D41B0605D49DF863
:102C5000168018F0010F1FD101E0062438E0039F11
:102C60000B993878FEF77FFC18F0100F054615D049
:102C70007B699D4210D021460FA80F971195FEF752
:102C80009CFF044620BB01460FA8FFF701FA04464B
:102C900010B1042802D01BE0072419E0049F0A9910
:102CA0003846FEF715FD044690B90B9BE5221A70D5
:102CB0000123FB7025B90398FEF7BFFC044607E02B
:102CC000224629463046FFF730F804460028F2D065
:102CD00020461AB0BDE8F0812DE9F04F93B00222F2
:102CE000019002A901A8FEF747FD0446002840F024
:102CF000868012AE029B46F82C3D01993046FFF7C4
:102D0000CFF80446D0B1042879D19DF8473003F0BC
:102D1000200303F0FF019BB912AF029B47F83C3D33
:102D20003846FEF78BFF054660B1012D0CD1022419
:102D3000002229463846FEF7F8FF60E008245EE0EE
:102D400006245CE00724F3E76B1C56D02946029862
:102D5000FFF721F804460028EAD102980B2220212F
:102D60003430FEF77BFB02984FF02E084FF010092D
:102D70004FF0210B4FF04C0A80F8348080F84A4025
:102D800080F84B4000F1340180F83F9080F84CB05F
:102D900080F84DA02A46FEF7F4FB0298202200F1AD
:102DA00034015430FEF7D6FB0298099A80F855801A
:102DB00000F15401FEF7E5FB029B4FF0010883F898
:102DC00003803046FFF7AEF904460028B0D10E9BD1
:102DD0009875D87583F818B083F819A02A460E990B
:102DE0000298FEF7CEFB0E9B029883F80B9080F8BA
:102DF0000380FEF722FC044601E0012498E7204608
:102E000013B0BDE8F08F70B5A2B0019022A840F8D1
:102E1000881DFEF743FB022203A901A8FEF7ACFCC4
:102E2000002875D122AC039B44F8583D01992046F7
:102E3000FFF736F800286BD19DF85B3013F0A00F38
:102E400052D12022139904A8FEF784FB214617A82B
:102E50002C22FEF77FFB009917A8FFF721F840B955
:102E60000E9B199A9A4250D1109B1B9A9A424CD1B0
:102E700001E004284CD117A8FFF754F9002847D1E6
:102E80001E9C13220DF11D0104F10D00FEF762FBE3
:102E90009DF81B30039DDA0658BF43F0200301263E
:102EA000E372EE70E37ADB0620D5199B0E9A9A4204
:102EB0001CD021462878FEF756FB01462846FEF72F
:102EC000E1FA014618B32846FEF702FC00BB03985E
:102ED00090F855302E2B09D1199A00F15401FEF7C4
:102EE00050FB039BDE7001E0062011E00C9C129960
:102EF0002046FEF7EDFB58B9139BE5221A7001231B
:102F0000E3700398FEF799FB02E0082000E002203E
:102F100022B070BD30B58FB00C460190154602A9A5
:102F2000022201A8FEF728FCE8B90EA8029B40F88F
:102F30002C3D0199FEF7B4FFA8B99DF8373013F086
:102F4000A00F0FD10A9A0298D17A84EA010305EA08
:102F5000030404F027044C400123D472C370FEF72D
:102F60006CFB00E006200FB030BD10B58EB00C46F3
:102F70000190022202A901A8FEF7FEFBD8B90EA813
:102F8000029B40F82C3D0199FEF78AFF98B99DF805
:102F9000373013F0A00F0DD1E388A1880A9843EAD7
:102FA00001411630FEF752FA02980123C370FEF772
:102FB00044FB00E006200EB010BD70B58EB00D468B
:102FC0000190164602A9002201A8FEF7D5FB04468F
:102FD00000283FD135B3029B0590014603A8039317
:102FE000FEF7EBFDD0B9012103A8FFF751F8A8B90E
:102FF0000A9B6A1E013B05F10A0113F8010F02F852
:10300000010F9142F9D105F10B0300219D42197086
:1030100008D013F8012D202AF8D003E0042818D195
:1030200000232B70B6B10298016AFEF751FB0446EB
:1030300080B9029B1A78032A04D0042A0CBF6420AA
:10304000272000E0432034331844FEF7F7F93060BE
:1030500000E0044620460EB070BDFFFF30B595B0CD
:103060000222019002A901A8FEF786FB044600286F
:103070005CD103AD28460B222021FEF7EFF9304842
:10308000019B1A781F2A1AD95A1C01921A7893B2F6
:10309000A3F16101192902D8203B9BB207E07F2BE5
:1030A00084BF121812F8803C0BB9062045E0254970
:1030B00011F8012F002A3BD09342F9D1F5E79DF892
:1030C0000C30E52BF1D02CB1631EEA5C202A01D133
:1030D0001C46F8E7029B0993002109A80B91FEF713
:1030E0006CFD50BB012109A8FEF7D2FF20B994B9AD
:1030F000109BE5221A7013E004281ED1B4B109A870
:10310000FEF7F6FFC8B9202201461098FEF7A6F98F
:10311000109B0822DA720B2229461098FEF71AFA41
:1031200002980123C370FEF788FA06E0204604E007
:103130000B2CBAD02B550134A2E715B030BD00BF1F
:103140006CE6000009E600002DE9F74F0E4601A9E4
:1031500004461746FEF7E6F9002879D1607C00287E
:1031600076D1002E5BD0E368002B58D1237C9A07E0
:1031700055D5019A5389D2F80C805B02B6FBF3F562
:10318000013B3340002B18BF0135B8F1010F05D9C1
:103190009369984528BF4FF0020801E04FF00208FC
:1031A000C146C2464FF0000B51462068FEF7ABFC0B
:1031B000019B9B690AF1010A9A4528BF4FF0020A58
:1031C000012828D0431C28D020B90BF1010B5D4504
:1031D00003D105E0D1464FF0000BC245E4D11EE01B
:1031E00017B909F1FF301CE0C846AA46BAF1000F32
:1031F00017D0BAF1010F14BF08F101024FF0FF32EE
:1032000001984146FEF704FC10BB40460AF1FF3A24
:1032100008F10108EAE702201AE0012018E007207F
:1032200016E0019BD86097B1227CC4F8089042F068
:103230004002227499691A69E66002398A429FBF86
:10324000551B1A791D6142F0010298BF1A710020C6
:1032500003B0BDE8F08FFFFF2DE9F04F8DB00DF109
:10326000300E0D464EF80C0D704617461C46169E45
:10327000FEF714F90028C0F29382B74B53F82030C0
:103280000BB100221A705FFA80FA0121504600F05B
:10329000EDFAC20700F18682430700F185820AAA8F
:1032A0000321504600F030FB30B90A9A531EB3F5A3
:1032B000004F01D21A4201D001230A9337B1A74B24
:1032C000A7F500729A4201D9132081E27B1E3B428E
:1032D000FAD1002C00F06A82730A039300F0668230
:1032E0000BAA0121504600F00FFB002840F060823D
:1032F00005F0080303F0FF02002B0CBF4FF03F095D
:103300004FF000090B9B0292994501D90E205FE214
:10331000C9EB03037F2B0B93F8D97A0A802AD3D801
:1033200005F0020101F0FF00049029B105F007014A
:10333000022905D0E80703D5E907C5D5022700E033
:103340000327190B06910A99481E49420791032F3A
:103350004FEA53410890059140F6F57C4FF6F57E13
:1033600072D14AB97E48012630F8021F29B1059D65
:103370008D4202D37600F7E71646B3FBF6F17948A3
:103380008D00A1F57F41F63905F2072581424FEA0C
:103390005525BBD8002101914FF0200B1EE0069D62
:1033A0008D4204D3760030F8021F0029F7D1B3FB19
:1033B000F6F565459BBF05EB4505013502356D0802
:1033C0008CBF6D00033505F2FF154FF020018CBF57
:1033D000022701276D0A01914FF0010B0BEB090148
:1033E000009101990098691801EB00080898079965
:1033F000032F404400EA010008BF0099C8EB000019
:1034000006BF091883442D18C9EB061008BF0091A8
:1034100008EB00018B42FFF479AFCBEB0308019975
:10342000C5EB0808032FC1EB0808B8FBF6F811D06C
:10343000022F22D1F04516D9002A40F0C381760030
:10344000402E00F2B781324612B947480126AAE75A
:103450001646ACE7F04516D8002A7FF457AF72083D
:103460003FF454AF7DE7E0450DD8002A7FF44EAF1E
:103470007200802A3FF64AAFE6E740F6F5739845BA
:103480003FF644AF01274FF4007200212046FDF7BC
:10349000E5FF0B2235492046FEF75CF80B9984F8CE
:1034A0000EB000230222032FE3722273CBF3072B0B
:1034B0004FF00102637418BF0223B1F5803F6673B9
:1034C00084F80FB02274A37404D2E174C1F307210D
:1034D000217503E004F12000FDF7B8FFF8236375C0
:1034E0003F2300222376FF23A3766276E2764946C5
:1034F00004F11C00FDF7AAFF032F4FF0210339D17F
:1035000084F845304C2384F8432084F8442084F820
:103510004630294604F12400FDF798FF022384F881
:103520002C30012384F83030062384F83230802395
:1035300084F84030292384F82D2084F82E2084F844
:103540002F2084F8312084F8332084F8423013226D
:10355000074904F1470024E020B2012000FEFF00EB
:1035600008E70000FFFFFE0FFAE6000035E6000066
:1035700041E6000084F829304C2384F82A30C5F352
:103580000723E375802384F82430934984F82720A7
:10359000292384F82820A57584F82630132204F105
:1035A0002B00FDF7D7FF4FF0550384F8FE316FF085
:1035B000550384F8FF314A4601232146504600F066
:1035C00086F98346002840F0F380032F41D1012380
:1035D00009F106022146504600F079F94FF40072D5
:1035E00059462046FDF73AFF5223412272212370AB
:1035F00063706123A370E27084F8E41184F8E5112C
:1036000084F8E62184F8E73108F1FF3104F5F4701D
:10361000FDF71CFF022384F8EC314FF0550384F8CA
:10362000FE316FF0550384F8FF3109F107020123E1
:10363000214684F8EDB184F8EEB184F8EFB150463C
:1036400000F045F9012309EB03022146504600F042
:103650003EF9039B00215A022046FDF7FFFE032F8F
:103660000FD1F8232370FF236370A370E3702371DD
:103670006371A371E37123726372A3720F23E37208
:1036800007E0012F5549204618BF6FF00701FDF7ED
:10369000DDFE039B009AAB4228BF2B4621465046D5
:1036A000984600F014F90146002840F081804FF45C
:1036B00000722046FDF7D2FE009BB5EB080543449F
:1036C0000093E6D1019B032F08BF33460193019B72
:1036D000039A934228BF13462146009A50461D463E
:1036E00000F0F5F8002863D1009B2B440093019B68
:1036F0005B1B0193EBD1032F08D00B9BB3F5803FED
:1037000006D2022F14BF0123042302E00C2300E0A1
:103710000623029A42B100221146504600F0F4F806
:10372000003018BF012053E04FF400720299204688
:10373000FDF794FE552284F8FE21AA2284F8FF2189
:103740009DF8082084F8BE2184F8C1210B9A84F8E2
:10375000C2314A4443F6C163B2FBF3F2FE2384F85C
:10376000C331930843F03F03012584F8C43184F842
:10377000C521494604F5E37084F8BF5184F8C0516F
:10378000FDF764FE0B9904F5E570FDF75FFE2B462F
:10379000029A2146504600F09AF80028BBD007E074
:1037A0000B2015E0032013E00A2011E011200FE0A8
:1037B00001200DE0049909B10327D3E5802E3FF6DF
:1037C000A5AD40E6049900293FF4A0AD0327C8E564
:1037D0000DB0BDE8F08F00BF55E60000F8FFFF0018
:1037E0002DE9F341064690464F1E04460025BD4292
:1037F00013DA01AB012269464046FEF7AEFD019B9C
:10380000012B0AD19DF800300D2BF0D0621C0A2B41
:10381000237005F101051446E9D100239D4214BF30
:1038200030461846237002B0BDE8F08110B594B060
:1038300003464C220C4601A80021FDF70FFE01A80B
:1038400019460194FEF7DAFE01A8FEF7F9FE14B05E
:1038500010BDFFFF012803D820B9034B187870472B
:10386000012070470320704740A7012010B558B9C8
:1038700002F06CFD044602F063FC044B1870044B2C
:1038800004B91C70187810BD032010BD30B201209F
:1038900040A7012070B504460E461946FFF7DAFF2F
:1038A000C3070ED46CB961B114468D182146304659
:1038B00002F058FC06F50076013420B9AC42F5D18F
:1038C00001E0032070BD003018BF012070BD70B54D
:1038D00004460E461946FFF7BDFFC3070ED46CB968
:1038E00061B114468D182146304602F0BDFC06F544
:1038F0000076013420B9AC42F5D101E0032070BD5F
:10390000003018BF012070BD10B50446FFF7A2FFBC
:10391000C3070DD464B9012904D00BD3032904D003
:10392000042010BD4FF0807300E08023136001E09D
:10393000032010BD204610BDFDF7B4B92DE9F843B2
:103940008046006838B3044601302378202BFAD033
:10395000DFF848900026350155F80970384605F023
:10396000AFF921460246384605F018FA60B94D44D1
:103970002B79012B08D1384605F0A2F92044C8F86C
:1039800000006879BDE8F88301361A2EE3D14FF0C4
:10399000FF30BDE8F883BDE8F88300BFF4EB00001A
:1039A000132833D8DFE800F0300A0C0E101214167A
:1039B000181A1C1E20222426282A2C2E154826E000
:1039C000154824E0154822E0154820E015481EE07F
:1039D00015481CE015481AE0154818E0154816E08F
:1039E000154814E0154812E0154810E015480EE09F
:1039F00015480CE015480AE0154808E0154806E0AF
:103A0000154804E0154802E0154800E0154804F0A8
:103A100001BD00BF18E7000023E7000033E7000006
:103A200043E7000052E7000061E7000073E7000091
:103A300082E7000097E70000ACE70000C3E7000062
:103A4000DCE70000EEE7000016E8000026E80000D2
:103A500044E8000054E8000069E800007EE8000047
:103A600094E800009DE80000B1F57A7F4FF47A7386
:103A700035BF4343B1FBF3F1B3FBF1F3B0FBF1F31B
:103A80000146014804F02CBCACE800002DE9F041EF
:103A90000E468EB01446014678B3B6F5806F2CD32F
:103AA000012204A8FEF780FB054698B9174B1B6856
:103AB0000293DDF80880074601AB4FF400723146EF
:103AC00004A8FEF74AFC054638B9019B2BB11F44F8
:103AD0001E44F1E74FF00008474604A8FEF7FBFD3F
:103AE0006DB974B1094B0A4A1B68039303993846B0
:103AF000C1EB0801FFF7B8FF01E0132002E0284600
:103B000000E020460EB0BDE8F08100BF28BE0120D5
:103B1000CDE800002DE9F047144608AE00221D460E
:103B200096E8C003FFF7B2FFB0B9013425B1012D0B
:103B300012D144F001042047094B1A68D3680A9354
:103B4000936809935368089342464B46394630467A
:103B5000A446BDE8F04760474FF0FF30BDE8F0876E
:103B600020AC01202DE9F84FDFF820819DF828A036
:103B7000074691469B4646180446C7EB0B01214475
:103B8000394804F0ADFB394804F0AAFB002555453F
:103B900032D2B9F1100F04EB050303D0B9F1200FB5
:103BA0000CD017E09E4204D91988314804F098FBE4
:103BB00002E0304804F094FB023516E09E4204D93E
:103BC0001968294804F08CFB02E02B4804F088FBBC
:103BD00004350AE09E4204D91978284804F080FB95
:103BE00002E0274804F07CFB0135D8F800302020A3
:103BF000996803F075FCCAE7224804F071FB04EBF6
:103C00000A05A54212D0A64208D92078A0F12003C7
:103C10005E2B03D8D8F80030996803E0D8F800305C
:103C20009968202003F05CFC0134EAE7164804F0B0
:103C3000F1FB01F09BFF40B220280DD101F096FF6F
:103C400040B2202803D1AE4209D92C4695E71B2863
:103C5000F4D10020BDE8F88F1B28F4D1F9E74FF02C
:103C6000FF30BDE8F88F00BF8EE2000094E2000054
:103C7000D2E80000DBE80000D7E8000098E200008E
:103C8000DDE800009DE200009EE2000020AC012083
:103C900010B509490446094804F022FBFCF7FAFF75
:103CA000074A0849084804F01BFB1CB1BDE8104056
:103CB000FCF752BF10BD00BFE0E80000E6E80000DE
:103CC000EFE80000FAE8000000E9000070B5174CCA
:103CD0000A460D460021064604F0B0FA23784BB997
:103CE000012213491348FEF75FFA08B1022300E0EE
:103CF000012323702378012B0ED10E4A294630462A
:103D0000FFF76EFD10B104F085FB05E00948FEF7F2
:103D1000E2FC064B02221A702378022B04D1064AD9
:103D200029463046FDF700F9002070BD31B2012070
:103D300011E9000034B201201EE900002DE9F0472E
:103D4000A14EA8B000200121C6F84C0BFFF78EFD54
:103D50000AAC054620B19D4804F0C2FA00270CE0E9
:103D60009B49204604F0C6FE2A46214606F17C0007
:103D7000FEF7F4F90028EED10127B846954804F083
:103D8000AFFA782120460494FFF7A0FF04A8FFF7BC
:103D9000D5FD412800F0BB8120DC2B2800F0A1805C
:103DA0000ADC022845D002DC0028E7D0B6E204286D
:103DB00060D014286ED0B1E23D2800F0E08006DC2F
:103DC000302800F09B803C2800F0BA80A6E23F2813
:103DD00000F01481402800F03F819FE2552800F058
:103DE0006D8212DC502800F0658206DC422800F06B
:103DF000CD81432800F0088290E2512800F05C82D7
:103E0000542840F08B82744859E2822800F07F8267
:103E100006DC782800F05782792800F063827DE282
:103E2000832800F07682852840F07882FCF794FEA3
:103E3000A4E705A904A802F0D7FC08B9674816E072
:103E400006A904A802F0D0FC20B1069B012BC4BF38
:103E5000002306939DF818109DF81400FFF706FD47
:103E600020B95F4804F03CFA012787E75D4804F079
:103E700037FA83E705A904A802F0B6FC00283FF44E
:103E80007DAF002211469DF81400FFF73DFD01466D
:103E9000554839E205A904A802F0A6FC18B1059B13
:103EA000092B3FF66BAF06A904A802F09DFC00B9F0
:103EB0000690059A4D49204604F01CFE059B9DF88E
:103EC00018204FF40D7000FB036021467C30FEF794
:103ED00045F9002831D1424804F002FA4FF00108B8
:103EE0004CE704A8FCF766FD054604A8FCF78BFD2B
:103EF000012201462846FFF7C9FD1BE004A8FCF794
:103F000059FD054604A8FCF77EFD814604A8FCF790
:103F10007AFD824604A8FCF776FD354B0393002317
:103F2000019300930296C3B2524649462846FFF7D2
:103F3000F1FDC0B200283FF421AFFFF731FD1DE7CE
:103F400005A904A802F050FC00283FF417AF06A909
:103F500004A802F049FC00283FF410AF07A904A808
:103F600002F042FC00B90790224804F0B9F9059B21
:103F7000069A93426ED2079A43F8042BF8E705A9F4
:103F800004A802F031FC00283FF4F8AE06A904A80A
:103F900002F02AFC00283FF4F1AE07A904A802F0C1
:103FA00023FC00283FF4EAAE134804F099F9059A7F
:103FB000069B9A424ED2079B12F8011B1970079B71
:103FC00001330793F4E700BF5CB2012028E9000049
:103FD0005FE9000062E900006AEA000065E90000AC
:103FE00073E9000081E9000098E900009FE9000002
:103FF00000A70120A3E90000B0E9000005A904A87A
:1040000002F0F2FB00283FF4B9AE06A904A802F0C2
:10401000EBFB00283FF4B2AE07A904A802F0E4FBD2
:1040200000283FF4ABAE974804F05AF90599069B77
:104030008B420FD9079B0D46187815F8012B90423B
:1040400003D00090904804F04BF9079B013307938D
:104050002946ECE78D480AE705A904A802F0C4FB4D
:10406000C8B98B4A92F834300BB1936912E092F8D8
:104070003520874B0AB11B680CE093F836200AB153
:104080009B6807E093F837200AB11B6902E09B6A3E
:10409000A3F50073059306A904A802F0A5FBB8B91F
:1040A0007B4B93F834200AB1DB6910E093F835209C
:1040B0000AB15B680BE093F836200AB1DB6806E0D2
:1040C00093F837200AB15B6901E09B6A08330693D5
:1040D00007A904A802F088FB002800F07081079B64
:1040E000083B182B00F26B816A4A22FA03F3DB07C4
:1040F00040F16581684804F0F3F820230093059BA4
:10410000079A06991846FFF72DFD6448AFE605A902
:1041100004A802F069FB00283FF430AE06A904A809
:1041200002F062FB08B95E4D10E0059B5A1C059237
:10413000069A1A7006A904A802F056FB0028F4D1CA
:104140001CE61F2B13D8059B013305930599554891
:104150000A7804F0C5F82B6878215A68204603F0E5
:1041600017F99DF8283004942E2BEAD106E606A90B
:1041700004A802F039FB28B1059B5A1C0592069A47
:104180001A70E3E7484804F0ABF8DFE708A904A891
:1041900002F082FA00283FF4F1AD09A904A802F068
:1041A0007BFA08B93E4D10E0089B099A23F8022BD0
:1041B00009A904A8089302F06FFA0028F4D1DDE5FC
:1041C0001F2B13D8089B02330893089937480A8895
:1041D00004F086F82B6878215A68204603F0D8F856
:1041E0009DF8283004942E2BEAD1C7E509A904A82C
:1041F00002F052FA20B1089B099A23F8022BE3E758
:10420000294804F06DF8E0E708A904A802F044FA90
:1042100000283FF4B3AD09A904A802F03DFA08B99B
:104220001F4D11E0089B099A1A60089B09A90433E5
:1042300004A8089302F030FA0028F3D19EE51F2B62
:1042400013D8089B04330893089919480A6804F0A6
:1042500047F82B6878215A68204603F099F89DF8B2
:10426000283004942E2BEAD188E509A904A802F08D
:1042700013FA18B1089B099A1A60E2E70A4804F099
:104280002FF8E1E7BBE90000C8E900000FE90000F2
:1042900000A7012001010001E2E90000EFE90000B0
:1042A00020AC0120FBE9000007EA00000CEA000056
:1042B00018EA0000434802E0434800E0434804F0A5
:1042C0000FF84348D3E505A904A802F08DFA0028A9
:1042D0003FF454AD05993F4804F002F8059B43F0C4
:1042E00001031AE005A904A802F07EFA00283FF4B1
:1042F00045AD0599384803F0F3FF059B9847014603
:1043000000283FF43BAD354803F0EAFF36E534487A
:10431000ADE5344803F0E4FF012318479DF8283049
:104320000494002B3FF42AAD0FB92F489FE5B8F154
:10433000000FFAD004A8FCF73DFB012581464FF0A1
:10434000000A022D0ED0032D12D0012D19D1274BBA
:104350000193CDF80090264B2649002214A804F0C2
:10436000C9FB14E04A46244914A804F0C3FB0EE03C
:10437000CDF800901E4B2149002214A804F0BAFB8E
:1043800005E04B4600221E4914A804F0B3FB1D4B68
:104390001D4A0393049B00930296CDF804A00023CA
:1043A000114614A8FFF7B6FB013003D04FF0010807
:1043B0004746E3E4042DB8D00135EDB2C1E7082348
:1043C000079397E625EA000055EA00007EEA000020
:1043D0003BEA000092EA0000AEEA0000C8EA0000F2
:1043E000E2EA0000FDEA000010EB00002FEB000005
:1043F0001EEB000022EB00002CEB000033EB000072
:104400003DEB000000A701200000FF1F114B124AE6
:1044100010B54FF47A700024C3F8502B1C7000F0D4
:1044200009F90E4B1B682146986804F0B3FAFCF7B3
:1044300045FBFCF736FC0A4803F052FF094803F03D
:104440004FFF0948FCF72CFC0120FFF721FCFFF788
:1044500075FC00BF5CB2012028BE012020AC012009
:1044600044EB000050EB000039390000054B187890
:10447000054B1A78C0B2D3B2984238BF4030C01A48
:10448000704700BF1EBE0120B5BD012010B5284BEE
:104490001A79920620D52749DA790B782648013314
:1044A00000783F2BC8BF0023834218BF2348D2B2F5
:1044B0001EBFC254DAB20A70214A116861B1214AA2
:1044C0001278D2B2934236BFC2F140029B1A9B18B7
:1044D000272BC4BF01230B701549CA78D2B214062A
:1044E00016D50B79180613D5174B164C1878237868
:1044F000DBB2984202D16C23CB7009E00133282B48
:1045000028BF00231148C05CDBB2C0B2C871237061
:1045100051060CD5064B1A79520608D50C4A0021D3
:1045200011700C4A126802B111702C22DA7010BDA1
:1045300000C006401EBE0120B5BD0120DEBD012029
:10454000B0BD01201FBE012024BE0120B6BD012048
:10455000B4BD012020BE012010B572B60B48026820
:10456000B2FA82F10B2902DD62B6002010BD4FF0D5
:104570000043CB4022EA0302026062B6044C4823A7
:104580004B43E0180022E250426010BD44A70120D6
:1045900098A301200C4B4822C31AB3FBF2F30B2B58
:1045A00011D80A4A127822B1094A12780AB100F0E9
:1045B0004FBA72B607494FF0004222FA03F30A6875
:1045C0001A430A6062B6704798A3012009C001200F
:1045D00014C0012044A70120044B054900221A60A1
:1045E0000A60044A106010221A60704714D0034019
:1045F00004D0034000D0034072B60B4B0B4A0C4969
:104600001B681268096862B6490102D5322B88BF5F
:104610000132C3F53B4330207F33B3FBF0F34FF45B
:104620007A7000FB0230704718E000E028BE0120DD
:1046300004ED00E038B50446FFF7DEFF054624B977
:1046400038BD013C0AD005F57A75FFF7D5FF401B50
:10465000B0F57A7FF5D201F02DFCF6E738BDFFFF0B
:104660002B4B4FF0006270B51A604FF080521A6009
:104670004FF000521A604FF080421A604FF0004233
:104680001A60244B244A254D254C264E4BF6FF71CB
:1046900000201860596028231360936013619361B0
:1046A0001362936213639363103202F501222B604D
:1046B0002360136093601361936113629362092214
:1046C000326006F58056043630607160B360336145
:1046D00046F8042C06F5FE2630607160B360336145
:1046E00046F8042C06F5805630600F4801602B60B8
:1046F00023600E4B1A6001F067F91920FFF79AFF4B
:1047000000F0E4FF40F21310BDE87040FFF792BFE5
:1047100004E100E0048003400C8003400C900B4057
:1047200014900B400080034008900B4000900B4019
:1047300030B503460020B3FBF2F402FB1433092B1F
:1047400094BF30333733DBB20B5423460CB1013006
:10475000F1E70A1823465470C41AA34206DACC5C67
:104760001578CD5402F801490133F5E7084630BD0C
:10477000054B1878054B1A78C0B2D3B2984238BFAF
:104780004030C01A704700BF9ABE012031BE0120E0
:1047900010B5284B1A79920620D52749DA790B787B
:1047A0002648013300783F2BC8BF0023834218BF3F
:1047B0002348D2B21EBFC254DAB20A70214A11682D
:1047C00061B1214A1278D2B2934236BFC2F140029F
:1047D0009B1A9B18272BC4BF01230B701549CA785D
:1047E000D2B2140616D50B79180613D5174B164CF2
:1047F00018782378DBB2984202D16C23CB7009E0A1
:104800000133282B28BF00231148C05CDBB2C0B2A3
:10481000C871237051060CD5064B1A79520608D57B
:104820000C4A002111700C4A126802B111702C223E
:10483000DA7010BD00B00E409ABE012031BE0120DA
:104840005ABE01202CBE01209BBE0120A0BE01202B
:1048500032BE012030BE01209CBE01201FB572B6C1
:10486000134B144970221A70134A116080221A7077
:104870001A781206FCD5114B186862B6104B984294
:1048800098BF0A2301AC98BF58430A222146FFF77C
:104890004FFF0C4A0023E15C21B101330A2B22F8BF
:1048A000021BF8D1084A01335B00137004B010BD3D
:1048B0000000024000000741040002400C000240DA
:1048C0007F969800D2A70120D0A70120054B187829
:1048D000054B1A78C0B2D3B2984238BF4030C01AE4
:1048E000704700BF2ABF0120A9BE0120F0B534499E
:1048F0000B7913F0300F2FD072B68B7D03F0FF04CD
:1049000023B9CB7940234B7462B625E062B62D48BB
:104910002D4A037812782D4FDBB2D2B20546581CCF
:104920004028CE7928BF00209042F6B21CBF3E54EA
:104930000346601E10F0FF04F1D1D9B2297024495A
:10494000096849B1934236BFC2F140029B1A9B18D5
:10495000272BC4BF01230B70194AD178C9B20D06A9
:104960001ED513791C061BD51A4B1B481D780378DE
:104970001A4EEDB2DBB2AB420AD00133402B28BF56
:1049800000231479F45CE4B2D471147D072CF2D9BD
:10499000DBB203700A4B1A79100644BF7C22DA702E
:1049A00049060CD5064B1A79520608D50C4A002147
:1049B00011700C4A126802B111703C22DA70F0BD1D
:1049C00000A006402ABF0120A9BE0120EABE0120A6
:1049D000A4BE012030BF01202BBF0120AABE0120B0
:1049E000A8BE01202CBF0120431E032B14D872B691
:1049F0000A4951F8230068B170B4094C058834F8AD
:104A00001320466841F82360521B24F8132062B635
:104A100070BC704762B67047002070478CBF0120A1
:104A200008C20120013803280BD872B6074B53F88F
:104A3000203043B100205B680130002BFBD162B60F
:104A40007047002070471846F9E700BFE0BF01201B
:104A500030B472B62B4A13781D0706D52A4B196A53
:104A6000002936D0996A002941D053781C0706D511
:104A7000254B196C00293ED0996C002939D09378C8
:104A8000190705D5204B196E002936D0996E89B1CA
:104A9000D3781B0707D51C4BD3F880207AB3D3F803
:104AA000882011213AB162B6184B00221A7030BC2E
:104AB000FFF770BD0D21154C154D227843F831508C
:104AC00003EBC1030830013A5860227062B630BC73
:104AD000704704220D4C0F4D217843F8325003EB00
:104AE000C20308304A1E5860227062B6EFE7052103
:104AF000E1E70921DFE70822ECE70C22EAE71022D0
:104B0000E8E700BF94ED000000A0012009C00120EB
:104B1000C800400088004000431E032B1DD81B4ADC
:104B2000400140F0100030B4104472B6184CE25C02
:104B3000032A1BD8DFE802F00212151703220D88A2
:104B4000E25410F0080F14BFC823882343EA05433A
:104B500008310360416062B630BC70470830022201
:104B6000EDE70522EBE708300422E8E7094A52F8AE
:104B7000230038B1084A52F82300416042F823105C
:104B800062B6E9E742F82310034AF7E700A00120E4
:104B900018C00120E0BF0120F0BF01202DE9F04F37
:104BA000B54CB64E87B046E0B54F4FEA930B07EBD6
:104BB000CB08013DD8F8041003F00803EDB2A1F1D1
:104BC000080003F0FF02002B40F0108157F83B3043
:104BD0001B0C1FFA83FE21F808EC002B00F0FD806F
:104BE000A84B21F8062C41F8042C53F82520002A64
:104BF00000F0DF82DFF8CCA25AF825305860DFF8E9
:104C0000C8924AF8250039F815309E4429F815E075
:104C1000FFF7A2FC002800F0C5829B499B4B18F0CF
:104C2000080F00F1080018BF0B46C8F8040047F849
:104C30003B30082323702578EDB2690719D5944BD2
:104C40001B78A3B193490A7802F0FF0322B1013B1C
:104C5000DBB20B7003B900BE8F490A7802F0FF0384
:104C60002AB1013BDBB20B70002B00F071820423F0
:104C7000237005F0080303F0FF02002B00F0DC8036
:104C80003378DBB21D098FD19B087D4D55F8332059
:104C900005EBC301C2F38302013A49680C2A00F212
:104CA0009880DFE802F08C8C9696969696964D96B4
:104CB000969607000868DFF8F4E14A68DFF80CB25E
:104CC000764FCEF80420CEF8000082B240F2816028
:104CD0000021DFF8B49145F833904FF0010C824287
:104CE000CBF800102961A96187F800C0DFF8909126
:104CF00000F2F080B2F5D06F80F08F83B2F5817F43
:104D000000F0218300F2A882802A00F06283822AC8
:104D100040F02083BEF8043003F07F03042B00F240
:104D200019835F4A5F489B001A44017041701378F1
:104D30009B0740F17A8480F800C04FF0020C4DE3ED
:104D4000DFF888B1DBF8003073B3DFF884A1534F8C
:104D5000554ABAF8001097F800E0107840298C46C0
:104D600040F0020928BF4FF0400CBEF1000F8EF05A
:104D7000010E87F800E0CCEB01010CBF8827C827A3
:104D800005EBC90E89B280F0010047EA0C47CEF866
:104D90000430AAF8001045F83970634410700029F7
:104DA00000F04581CBF80030404B1A88B2F5A06F77
:104DB0000FD13F4A9978117000225A7009E03B4A9E
:104DC000108842F22102904200F036812E4A45F8C6
:104DD0003320384A012313702BE72B492B4B18F053
:104DE000080F18BF0B4647F83B3022E7FFF7D2FB0E
:104DF0003148324A50F82510002900F013824B68E0
:104E000012F805C040F8253001F10803C8F8043055
:104E1000BCF1030F05D8DFE80CF02C022926022391
:104E2000535518F0080F0A880CBF8823C82343EA9B
:104E3000024347F83B30FCE6E80700F18C81290685
:104E400000F10082AA0706D51D4A0B4913780220FB
:104E5000DBB213700870EB0602D5074B10221A70F4
:104E600007B0BDE8F08F04235355DAE70523535507
:104E7000D7E703235355D4E780200740902007400D
:104E800000A001208CBF0120C80040008800400025
:104E900014C001209DBF012081C101209CBF0120C1
:104EA000C02007400CC0012008C0012000C0012024
:104EB0009820074094200740E0BF012018C001203F
:104EC0008820074038BF012008C2012034BF0120DC
:104ED00048BF012042F221039A4200F0358100F2DE
:104EE000D980B2F5086F00F0B382B2F5106F40F0D0
:104EF0003182B24AD9F820309EF8021011701A0699
:104F000000F14383AB6AAE4A1B0600F139832B6B79
:104F1000AB4A180600F14E83AB6BA94A190600F1A3
:104F200044832B6CA64A1B0600F13A83AB6CA44A5F
:104F3000180600F130832B6DA14A190600F1648335
:104F4000AB6D9F4A1B0600F15A832B6E9C4A1806D4
:104F500000F15083AB6E9A4A190600F146832B6F1D
:104F6000974A1B0600F13C83AB6F954A180600F187
:104F70003283D5F88030924A190600F12683D5F89D
:104F800088308F4A1B0600F11A83D5F890308C4A7E
:104F9000180600F14483D5F89830894A190600F1C3
:104FA000388300230193874B0293874B0393874BEE
:104FB0000593DFF860A2864BDFF85C920493029BB6
:104FC000186830B1D0F80480FFF7E4FA40460028B2
:104FD000F8D1039B1868029B1A4600231360019BBB
:104FE0001A4600234AF8223030B1D0F80480FFF787
:104FF000D1FA40460028F8D1039A049B11460022BA
:105000000A60059A1B781146002241F8042B019A88
:105010000591023B4FF0000129F81210032B00F21A
:105020003F81DFE813F08B0139018B013901BCF1BD
:10503000400F18BF0023B5E6664A0F78487817700E
:1050400050708F78C8789770D07010680F7917718A
:1050500086284F7989799171577108BF5E4A5F4FF1
:1050600004BF0F2111705E4A38781178002881F052
:10507000010E41F0020182F800E00CBF8822C82234
:1050800045F8312005EBC10180F0010000223870A5
:105090004A609BE642F221239A4240F0E781DFF822
:1050A0007C91504B504A9EF80200D9F800E0C3F8BA
:1050B00000E00191CDF808C010700021029B03911F
:1050C0008A4689460846464A92F800E04EF0020CAD
:1050D00005EBCC08002BC8F804000CBF8820C820C2
:1050E00040EA0A0A9DF8043045F83CA08EF0010021
:1050F0003B701070DFF8C8C0DFF8E080DFF8E0A098
:10510000002940F02E81B9F1400F1DD140F002007E
:1051100005EBC005039B6B60019DDFF8A4C0002D6B
:1051200040F036810D0445F088084CF830809DF839
:1051300008503D7082F800E00B44402904D1002162
:105140002A4ACBF800301180294A0123137040E627
:1051500000F0BCFD8BE51A4B254821491A614FF040
:10516000020E80F800E0234F0A702349196099600D
:10517000224E234D234C9A610D213970FF2131704D
:10518000DFF89CE0297022701F4D204A8EF8001035
:105190009F27012406F8047C5D600470DA6007B084
:1051A000BDE8F08F1A4A47F83B00137801331370BB
:1051B0003FE543F82500DFF85CA020E514C001209E
:1051C00000A001208CBF0120E0BF0120F0BF012022
:1051D00018C0012010C201209DBF01209CBF0120EA
:1051E00008C0012018C2012090C1012048BF012041
:1051F00094200740C02007408800400088200740D6
:1052000080200740982007404CBF0120A0BF01200C
:1052100009C0012038BF012008C2012028BE01209A
:105220008C200740535D032B00F2CC8001A151F884
:1052300023F000BF334C0000334C000093520000B9
:105240008D520000BE49BF4B80220D2008701A709D
:10525000AA077FF500AEF7E540F202339A4240F02C
:10526000FC80BEF8042002F07F02042A72D8BEF847
:105270000230002B6ED1B249019392001144CDF857
:1052800008C00A7842F002020A7016E7012353555B
:10529000CFE400235355CCE4049B4FF001021A7075
:1052A000029A019B04320292039A04320392049AF6
:1052B00001330132042B019304927FF480AEDFF8B6
:1052C000B492DFF8B4A299F800309F4A00218AF81E
:1052D000001013701B0700F10A8199F801309B4AF6
:1052E000DFF89882137018074FF000022A63AA6350
:1052F00000F1E88099F80230954ADFF88082137057
:1053000019074FF000022A65AA6500F10381914A4E
:1053100099F80330137000222A67AA671A07DFF88A
:105320005C9200F1B8803B780293002283F0010385
:105330000193C5F89020C5F89820BEE6049B4FF075
:1053400000021A70ACE7BEF8042002F07F02042AC3
:1053500040F291807A4B0F221A707F4A012313701A
:1053600037E540297FF6D2AE40F002000CEBC002D8
:10537000039B5360019AC2B1784A9DF8085088F89F
:10538000005040398AF800E040334CF83020D7E62E
:105390009DF808303B700D04039B82F800E045F057
:1053A000C8050B444CF83050C7E69DF8083088F823
:1053B0000030039B6A4A8AF800E0403940334CF8D9
:1053C0003020BDE618F0080F0CBF0223032353550D
:1053D0002FE464484FF0020C01704170BEF80610D3
:1053E000614580F06181604A92F800E04EF0020C65
:1053F00005EBCC034029894628BF4FF0400958608F
:1054000000EB09030393002301930123C9EB01017E
:105410004FEA094A0293C82062E6544B58680028B4
:1054200098D0BEF80210BEF804C003E00C335868F0
:1054300000288FD01A888A42F8D15A886245F5D15F
:10544000090A03290CBF90F800C0B3F808C0C5E7EB
:10545000474B44481B780370C0E7B2F5A06F7FF458
:1054600079AF002301930123029326E642F2213310
:105470009A42F6D06EE7BEF80230002B7FF46AAF96
:105480002F49019392001144CDF808C00A7822F008
:1054900002020A7011E6FFF75FF8002800F0D080E2
:1054A00008302F4BC9F88400C9F88030FFF754F852
:1054B000002800F0BD800830284BC5F88C00C5F8E6
:1054C000883030E7FFF748F8002800F0D680083031
:1054D000234BC8F84400C8F84030FFF73DF80028D7
:1054E00000F0C48008301D4BE864AB6402E7FFF7AE
:1054F00033F8002800F0B3800830194B68622B6243
:10550000FFF72AF8002800F0A3800830134BE86268
:10551000AB62E2E6FFF720F8002800F0BD8008301B
:105520000F4BC8F86400C8F86030FFF715F8002882
:1055300000F0AB800830094BE866AB66E7E600BFD9
:10554000C020074080200740C4200740C8200740F3
:10555000CC200740D020074094200740C8004000DE
:10556000880040000CC0012008C0012098ED000018
:1055700014C0012094ED000009C0012000A001200A
:10558000D06A0838FFF706F8C1E4D9F824000838D3
:10559000FFF700F8B6E4D06C0838FEF7FBFFCAE46A
:1055A000506C0838FEF7F6FFC0E4D06B0838FEF701
:1055B000F1FFB6E4506B0838FEF7ECFFACE4D2F82C
:1055C0008C000838FEF7E6FFDFE4D2F884000838E4
:1055D000FEF7E0FFD3E4D06F0838FEF7DBFFC8E446
:1055E000506F0838FEF7D6FFBEE4D06E0838FEF7DD
:1055F000D1FFB4E4506E0838FEF7CCFFAAE4D06DBA
:105600000838FEF7C7FFA0E4506D0838FEF7C2FF68
:1056100096E4D2F89C000838FEF7BCFFC1E4D2F84B
:1056200094000838FEF7B6FFB5E44FF0020CD5E65B
:105630009AF80030C5F8880001338AF8003072E625
:105640009AF80030C9F8800001338AF800302DE75D
:105650009AF80030A86201338AF800303DE69AF8E3
:105660000030286201338AF8003049E79AF80030A8
:10567000A86401338AF800303CE69AF80030C8F894
:10568000400001338AF8003027E79AF80030A86616
:1056900001338AF800303AE69AF80030C8F8600022
:1056A00001338AF8003040E7BCF1400FE14628BFE3
:1056B0004FF0400900EB09030393002301930123FA
:1056C000C9EB0C014FEA094A0293FCE42DE9F041D1
:1056D000FFF7C4F82F4C304B3048DFF8D880304FFC
:1056E000304D314EDFF8D0C0DFF8D0E000221A6034
:1056F0005A609A60DA601A615A619A61DA611A62D4
:105700005A629A62DA621A635A639A63DA631A64B3
:105710005A649A64DA641A655A659A65DA651A6693
:105720005A669A66DA661A675A679A67DA67C3F83A
:1057300080202168C3F8842041F480212160016821
:1057400041F040710160C3F3072188F8001004F5AF
:105750002834C3F307411B0E3970CC342B7000F191
:105760002040FF238CF80030104D8EF8003000F6FA
:10577000041033700E49012308F8083C702622708B
:105780004FF40014102207F82C3C2E7004600A70AD
:10579000BDE8F0813480044000A0012000D8004022
:1057A000B0200740B42007401020074035E400E057
:1057B000082107409C2007408020074088200740A0
:1057C000054B1878054B1A78C0B2D3B2984238BF4F
:1057D0004030C01A704700BF8AC0012021C001209C
:1057E00010B5284B1A79920620D52749DA790B781B
:1057F0002648013300783F2BC8BF0023834218BFDF
:105800002348D2B21EBFC254DAB20A70214A1168CC
:1058100061B1214A1278D2B2934236BFC2F140023E
:105820009B1A9B18272BC4BF01230B701549CA78FC
:10583000D2B2140616D50B79180613D5174B164C91
:1058400018782378DBB2984202D16C23CB7009E040
:105850000133282B28BF00231148C05CDBB2C0B243
:10586000C871237051060CD5064B1A79520608D51B
:105870000C4A002111700C4A126802B111702C22DE
:10588000DA7010BD00D006408AC0012021C001207E
:105890004AC001201CC001208BC0012090C0012003
:1058A00022C0012020C001208CC00120054B1878A7
:1058B000054B1A78C0B2D3B2984238BF4030C01AF4
:1058C000704700BF02C1012099C00120F0B53449E2
:1058D0000B7913F0300F2FD072B68B7D03F0FF04DD
:1058E00023B9CB7940234B7462B625E062B62D48CC
:1058F0002D4A037812782D4FDBB2D2B20546581CE0
:105900004028CE7928BF00209042F6B21CBF3E54FA
:105910000346601E10F0FF04F1D1D9B2297024496A
:10592000096849B1934236BFC2F140029B1A9B18E5
:10593000272BC4BF01230B70194AD178C9B20D06B9
:105940001ED513791C061BD51A4B1B481D780378EE
:105950001A4EEDB2DBB2AB420AD00133282B28BF7E
:1059600000231479F45CE4B2D471147D072CF2D9CD
:10597000DBB203700A4B1A79100644BF7C22DA703E
:1059800049060CD5064B1A79520608D50C4A002157
:1059900011700C4A126802B111703C22DA70F0BD2D
:1059A00000B0064002C1012099C00120C2C0012000
:1059B00094C0012008C1012003C101209AC0012028
:1059C00098C0012004C1012010B5204B2048214976
:1059D00060221A70E1225A701F4B204A1C78204B1B
:1059E000082C01D1012402E00A2C03D139240460DF
:1059F000132005E00C2C0CBF35243D24046012203C
:105A0000086014601860174B17491B78174A03B1D8
:105A100001230B601360164B164A1978164B0129A7
:105A200001D880210BE0042901D8842107E008294E
:105A300001D8852103E0102994BF862187211160B8
:105A400019600E4B01221A7010BD00BF00400740C4
:105A500008B003400CB00340E6A7012008B00B409B
:105A60000CB00B400AC1012020B0034020B00B4015
:105A7000E7A7012024B0034024B00B4009C1012056
:105A8000054B1878054B1A78C0B2D3B2984238BF8C
:105A90004030C01A704700BF7AC1012011C10120F7
:105AA00010B5284B1A79920620D52749DA790B7858
:105AB0002648013300783F2BC8BF0023834218BF1C
:105AC0002348D2B21EBFC254DAB20A70214A11680A
:105AD00061B1214A1278D2B2934236BFC2F140027C
